:100000000C9456010C9477010C9477010C947701B1
:100010000C9477010C9477010C9477010C94770180
:100020000C9477010C9477010C9477010C94770170
:100030000C9477010C9477010C9477010C94770160
:100040000C9477010C9477010C9477010C94770150
:100050000C9477010C9477010C9477010C94770140
:100060000C9477010C9477010C9477010C94770130
:100070000C9477010C9477010C9477010C94770120
:100080000C9477010C9477010C9477010C94770110
:100090000C9477010C9477010C9477010C94770100
:1000A0000C9477010C9477010C9477010C947701F0
:1000B0000C9477010C9477010C9477010C947701E0
:1000C0000C9477010C9477010C9477010C947701D0
:1000D0000C9477010C9477010C9477010C947701C0
:1000E0000C9477010C9477010C9477010C947701B0
:1000F0000C9477010C9477010C9477010C947701A0
:100100000C9477010C9477010C9477010C9477018F
:100110000C9477010C9477010C9477010C9477017F
:100120000C9477010C9477010C9477010C9477016F
:100130000C9477010C9477010C9477010C9477015F
:100140000C9477010C9477010C9477010C9477014F
:100150000C9477010C9477010C9477010C9477013F
:100160000C9477010C9477010C9477010C9477012F
:100170000C9477010C9477010C9477010C9477011F
:100180000C9477010C9477010C9477010C9477010F
:100190000C9477010C9477010C9477010C947701FF
:1001A0000C9477010C9477010C9477010C947701EF
:1001B0000C9477010C9477010C9477010C947701DF
:1001C0000C9477010C9477010C9477010C947701CF
:1001D0000C9477010C9477010C9477010C947701BF
:1001E0000C9477010C9477010C9477010C947701AF
:1001F0000C9477010C9477010C947701084AD73B53
:100200003BCE016E84BCBFFDC12F3D6C74319ABDE5
:1002100056833DDA3D00C77F11BED9E4BB4C3E9109
:100220006BAAAABE000000803F07634236B79BD886
:10023000A71A39685618AEBAAB558C1D3CB7CC57C7
:1002400063BD6DEDFD753EF6177231BF0000008095
:100250003F08000000BE922449123EABAAAA2ABE63
:10026000CDCCCC4C3E00000080BEABAAAAAA3E007A
:10027000000000BF000000803F00000000000841B7
:1002800078D3BB4387D1133D190E3CC3BD4282AD29
:100290002B3E68EC8276BED98FE1A93E4C80EFFF01
:1002A000BE01C4FF7F3F00000000000011241FBEFC
:1002B000CFEFCDBFDFE3DEBF00E00CBF10E2A0E078
:1002C000B0E2E6E1FFE100E00BBF02C007900D9253
:1002D000AA33B107D9F720E2AAE3B0E201C01D9228
:1002E000A83DB207E1F70E9454060C94890F0C94C4
:1002F00000004F925F926F927F928F929F92AF9287
:10030000BF92CF92DF92EF92FF920F931F93CF9302
:10031000DF9300D01F92CDB7DEB769837A838B83DA
:100320009C83CA01B9010E94750D4B015C01A801B3
:100330009701C801B7010E94750D2B013C01A30173
:100340009201C501B4010E94040B0E94380E9B016A
:10035000AC0169817A818B819C810E94830B20E0B2
:1003600030E044E353E40E94750D23EC35EF48E49C
:1003700050E40E94E70BF6016083718382839383CC
:100380002496CDBFDEBFDF91CF911F910F91FF90DB
:10039000EF90DF90CF90BF90AF909F908F907F9025
:1003A0006F905F904F9008952F923F924F925F927F
:1003B0006F927F928F929F92AF92BF92CF92DF9275
:1003C000EF92FF920F931F93CF93DF931801870152
:1003D000E6010E94030B4B015C0120912420309127
:1003E0002520409126205091272060911C2070915B
:1003F0001D2080911E2090911F200E94750DC0909D
:100400002020D0902120E0902220F0902320A701EE
:1004100096010E94040B9B01AC01C501B4010E942E
:10042000750D2B013C01F8012081318142815381FE
:10043000C701B6010E94750D9B01AC01C301B20159
:100440000E94030B288139814A815B810E94040B41
:10045000F1016083718382839383688379838A83C4
:100460009B83F80180829182A282B382DF91CF9137
:100470001F910F91FF90EF90DF90CF90BF90AF90C2
:100480009F908F907F906F905F904F903F902F90B4
:1004900008952F923F924F925F926F927F928F9228
:1004A0009F92AF92BF92CF92DF92EF92FF920F9303
:1004B0001F93CF93DF934A015B011901E801870184
:1004C000BC01990F880B990B0E94910CA501940116
:1004D0000E94030B6B017C012091182030911920A0
:1004E00040911A2050911B20609110207091112092
:1004F00080911220909113200E94750D80901420FD
:1005000090901520A0901620B0901720A50194017E
:100510000E94040B9B01AC01C701B6010E94750D3E
:100520002B013C01F8012081318142815381C501B9
:10053000B4010E94750D9B01AC01C301B2010E9480
:10054000030B288139814A815B810E94040BF101F0
:100550006083718382839383688379838A839B8397
:10056000F801C082D182E282F382DF91CF911F91A4
:100570000F91FF90EF90DF90CF90BF90AF909F9042
:100580008F907F906F905F904F903F902F90089545
:100590002F923F924F925F926F927F928F929F9293
:1005A000AF92BF92CF92DF92EF92FF920F931F9381
:1005B000CF93DF93CDB7DEB76497CDBFDEBF2D837A
:1005C0003E834F835887EB8AFC8A1601A986BA8638
:1005D00020918620309187202630310554F020E08C
:1005E00030E040EA50E40E94E70B1092862010921F
:1005F00087202D813E814F8158850E94030B6B8798
:100600007C878D879E8780900C2090900D20A090F5
:100610000E20B0900F2020910420309105204091B1
:10062000062050910720C501B4010E94750DC090AD
:100630000820D0900920E0900A20F0900B20A7011C
:1006400096010E94040B69837A838B839C8340907C
:100650000020509001206090022070900320209193
:100660002420309125204091262050912720C3013D
:10067000B2010E94E70B9B01AC0169817A818B81F9
:100680009C810E94040B9B01AC016B857C858D8550
:100690009E850E94750D6F87788B898B9A8BAB89AD
:1006A000BC898D919D910D90BC91A02D89839A83D9
:1006B000AB83BC83F7FAF094F7F8F094A3019201AE
:1006C000C301B2010E94040BA50194010E94E70B33
:1006D0009B01AC01C701B6010E94030B9B01AC0159
:1006E00069817A818B819C810E94750D9B01AC018F
:1006F0006F85788989899A890E94040B6B017C0136
:10070000F1012081318142815381C301B2010E94F4
:10071000750DA50194010E94E70B9B01AC01C70177
:10072000B6010E94040BA985BA852D913D914D918A
:100730005C910E94040BF801608371838283938330
:10074000A985BA856D937D938D939C931397EB89BF
:10075000FC8980819181A281B381F10180839183A1
:10076000A283B3838B859C85AD85BE85EB89FC898F
:1007700080839183A283B3836D817E818F819885ED
:100780009F772CE734E14EEA5EE30E94680D18166D
:1007900034F4D8011D921D921D921C9213978091E2
:1007A00086209091872001968093862090938720C1
:1007B0006496CDBFDEBFDF91CF911F910F91FF9067
:1007C000EF90DF90CF90BF90AF909F908F907F90F1
:1007D0006F905F904F903F902F900895CF93DF934D
:1007E000C0E2DBE06881798180E090E00E948F0CBC
:1007F0002FE83FEF4AE95FE30E94750D20E030E00B
:1008000048EC52E40E94E70B18821982DF91CF91E5
:100810000895CF93DF93C0E6D9E06881798180E0C5
:1008200090E00E948F0C2FE83FEF4AE95FE30E94BF
:10083000750D20E030E048EC52E40E94E70B18828E
:100840001982DF91CF91089542E061E080E096E067
:100850000E945C0980ED0E94C2098BE60E94C209D9
:1008600080E00E94C2090E94A3090895CF93DF93FC
:10087000D82FC62F42E061E080E096E00E945C093C
:1008800080ED0E94C20980938920813041F08D2F34
:100890000E94C2098C2F0E94C2090E94A309DF9105
:1008A000CF910895CF93C82F42E061E080E096E0B9
:1008B0000E945C0980ED0E94C2098C2F0E94C2092F
:1008C0000E947B0981ED0E94C20981E00E94140A06
:1008D000809388200E94A30980918820CF91089559
:1008E000E0E4F8E023E0208311828FEF9FEF86A3FE
:1008F00097A3E0E4FAE02083118286A397A3E0E0C7
:10090000F9E02083118286A397A3E0E4F6E030E1CA
:10091000328321E0248BA0E8B1E044E611964C93A9
:100920001197E0E0FBE049E0408349E4438386A37C
:1009300097A31182E0E8F6E03283248B24E72C931E
:10094000E0E4F9E028E0208328E4238386A397A34A
:1009500011820895CF92DF92EF92FF920F931F932F
:10096000CF93DF939C019091A10B99230CF064C06D
:10097000E8016A017B01890184E090E00E94970A06
:1009800080938E2090938F20BC01990F880B990B38
:100990000E94910C20E030E040E251E40E94E70B1D
:1009A0000E94590C60938C2070938D2064367105E1
:1009B0000CF042C06833710594F08AE090E0F801D1
:1009C0008083918386E993E4ABE0BDE388839983D8
:1009D000AA83BB8381E090E0F601808391838091BC
:1009E0008C2090918D20C29784F486EF9FEFF801C0
:1009F0008083918386E993E4ABE0BDEB88839983A0
:100A0000AA83BB83F6011082118280918C20909181
:100A10008D20C397059738F4F8011082118218824F
:100A200019821A821B8280918A2090918B20C29712
:100A300019F4F70110821182DF91CF911F910F916C
:100A4000FF90EF90DF90CF9008952F923F924F92BA
:100A50005F926F927F928F929F92AF92BF92CF924E
:100A6000DF92EF92FF920F931F93CF93DF931C01BE
:100A7000CBE3D0E00BC08E010B531109CE010E94D5
:100A80005204F801E256FF4D80832196C134D1050E
:100A900094F3C3E4D0E00BC08E0103541109CE01DE
:100AA0000E945204F801E057FF4D80832196C9341B
:100AB000D10594F3E0E9F0E2628170E0762F6627D9
:100AC0008381682B072E000C880B990B0E94910CD8
:100AD000209134203091352040913620509137209C
:100AE0000E94E70B60939620709397208093982044
:100AF00090939920CEE9D0E2688170E0762F662746
:100B00008981682BC0903020D0903120E090322035
:100B1000F0903320072E000C880B990B0E94910C4B
:100B2000A70196010E94E70B4B015C016093A8208E
:100B30007093A9208093AA209093AB206A8170E0E3
:100B4000762F66278B81682B072E000C880B990B5C
:100B50000E94910CA70196010E94E70B2B013C011A
:100B60006093B0207093B1208093B2209093B32013
:100B70006C8170E0762F66278D81682B072E000C24
:100B8000880B990B0E94910CA70196010E94E70B1C
:100B900060939A2070939B2080939C2090939D203B
:100BA0000F2EF2E4CF2EF0E2DF2EF02D7B018C0130
:100BB000A3019201C501B4010E94790180919620A0
:100BC00090919720A0919820B0919920BC01CD01DF
:100BD00090589B01AC010E94040B20912C20309175
:100BE0002D2040912E2050912F200E94750D209194
:100BF0003E2030913F2040914020509141200E9462
:100C0000040BC0902820D0902920E0902A20F0905A
:100C10002B20A70196010E94750D4B015C01A701D5
:100C2000960160E070E080E89FE30E94030B209152
:100C300042203091432040914420509145200E9411
:100C4000750D9B01AC01C501B4010E94040B6093BA
:100C50003E2070933F208093402090934120F101EB
:100C60006083718382839383DF91CF911F910F9172
:100C7000FF90EF90DF90CF90BF90AF909F908F90BC
:100C80007F906F905F904F903F902F90089582E0FB
:100C9000809350008091510081FFFCCF88ED84BF8C
:100CA00081E08093400008950E9447060E94670AF1
:100CB0000E94240460E08CE10E9436040E946208D5
:100CC0000E9430080E9449080E9470048091600AC6
:100CD0009091610A8332914808F4BBC01092600A77
:100CE0001092610A8AE390E20E94250560913A2001
:100CF00070913B2080913C2090913D2026E933E487
:100D00004BE85CE30E94750D2B013C016093B82019
:100D10007093B9208093BA209093BB206091C0203B
:100D20007091C1208091C2209091C3202AE939E9B5
:100D300049E95EE30E94680D181644F4109282207F
:100D4000109283201092842010928520609182203E
:100D50007091832080918420909185200F2EF2E75E
:100D6000AF2EF0E2BF2EF02D0F2EF6E7CF2EF0E2E1
:100D7000DF2EF02D0F2EFAE7EF2EF0E2FF2EF02DF2
:100D80000EE710E2A30192010E94C80240907E206B
:100D900050907F20609080207090812020E030E093
:100DA000A901C301B2010E94680D1816CCF440E0FD
:100DB00050E0BA0180914820909149200E94820819
:100DC00040E050E0BA0180914820909149200E9473
:100DD000E20881E090E0809348209093492030C061
:100DE00020E030E0A901C301B2010E94E20B882398
:100DF0003CF540E050E0BA018091482090914920B4
:100E00000E94820840E050E0BA0180914820909111
:100E100049200E94E20810924820109249208091B7
:100E20007E2090917F20A0918020B0918120B058A9
:100E300080937E2090937F20A0938020B093812088
:100E40008091462090914720019680934620909370
:100E500047208091462090914720839724F18091EC
:100E6000A10B8823E4F40CEB10E222ED30E246EC17
:100E700050E26CEC70E284EC90E20E94AA04809153
:100E8000BC209091BD20A091BE20B091BF20809346
:100E9000822090938320A0938420B0938520109289
:100EA0004620109247208091600890916108833A13
:100EB000964308F444C01092600810926108209193
:100EC000C0203091C1204091C2205091C320609138
:100ED0007E2070917F2080918020909181200F2E24
:100EE000F6E6CF2EF0E2DF2EF02D0F2EFAE6EF2EF3
:100EF000F0E2FF2EF02D0EE610E20E94D4012091C8
:100F0000CE203091CF204091D0205091D1206091BF
:100F10007E2070917F2080918020909181200F2EE3
:100F2000FAE5CF2EF0E2DF2EF02D0F2EFEE5EF2EAC
:100F3000F0E2FF2EF02D02E610E20E94D401809133
:100F400020099091210982359B4108F46CC01092D0
:100F50002009109221090E94EE036093C020709333
:100F6000C1208093C2209093C3200E940904609303
:100F7000CE207093CF208093D0209093D12020E07A
:100F800030E044E752E46091C0207091C12080912C
:100F9000C2209091C3200E94750D2B013C016091ED
:100FA0006E2070916F2080917020909171200E942E
:100FB000590CDC01CB010F2EF2E5EF2EF0E2FF2EF3
:100FC000F02D06E510E228EC30E2B301A2010E9408
:100FD000490220E030E044E752E46091CE20709175
:100FE000CF208091D0209091D1200E94750D2B01AF
:100FF0003C01609162207091632080916420909107
:1010000065200E94590CDC01CB010F2EFAE4EF2E73
:10101000F0E2FF2EF02D0EE410E224EB30E2B301FB
:10102000A2010E9449024091C8205091C9206091BC
:10103000CA207091CB2080914820909149200E9435
:1010400082084091B4205091B5206091B6207091F3
:10105000B72080914820909149200E94E20836CE26
:1010600082E08093410680913820909139208093CE
:10107000260890932708E1E0F8E080818360808370
:10108000808180628083E0E0F8E0808181608083FD
:10109000089582E0809381068091382090913920D4
:1010A0008093260A9093270AE1E0FAE0808183602A
:1010B0008083808180628083E0E0FAE080818160CB
:1010C00080830895CF93DF93E0E4F6E081E08183AD
:1010D00024E0218338E03183A0E2B6E090E8119665
:1010E0009C931197C0EAD6E099839D8315969C93B3
:1010F0008683E0E8F6E03183218381838683DF9174
:10110000CF910895CF92DF92EF92FF926A017B0117
:10111000019739F4E0E4F6E088E0858384E0868393
:1011200006C0E0E4F6E088E0868384E085830E94E0
:10113000300820E038EE4DE757E4C701B6010E94C1
:10114000680D18166CF020E030E0A901C701B60167
:101150000E94E20B88236CF4C12CD12C760109C0CB
:101160000F2EC12CF8EEDF2EFDE7EF2EF7E4FF2E59
:10117000F02D20E038EE4DE757E4C701B6010E949C
:10118000E70B6B017C016091382070913920072EAC
:10119000000C880B990B0E94910CA70196010E94EC
:1011A000750D0E94600C60933A0870933B08809123
:1011B0000C0880FFFCCF10920C08FF90EF90DF909E
:1011C000CF900895CF92DF92EF92FF926A017B0158
:1011D000019739F4E0E8F6E084E0858388E08683CF
:1011E00006C0E0E8F6E084E0868388E085830E941C
:1011F000490820E038EE4DE757E4C701B6010E94E8
:10120000680D18166CF020E030E0A901C701B601A6
:101210000E94E20B88236CF4C12CD12C760109C00A
:101220000F2EC12CF8EEDF2EFDE7EF2EF7E4FF2E98
:10123000F02D20E038EE4DE757E4C701B6010E94DB
:10124000E70B6B017C016091382070913920072EEB
:10125000000C880B990B0E94910CA70196010E942B
:10126000750D0E94600C60933A0A70933B0A80915E
:101270000C0A80FFFCCF10920C0AFF90EF90DF90D9
:10128000CF90089500000000000000000000000062
:10129000000000000000000000000000000000004E
:1012A00000000000000000000000000008950E94FF
:1012B00042090E94420908958093D6209093D72036
:1012C0006093D4204093D520462BFC014283468373
:1012D0000E945709E091D620F091D7208091D42028
:1012E00081830E945709E091D620F091D720809108
:1012F000D52081830895E091D620F091D720809168
:10130000D42082830E945709E091D620F091D72003
:101310009091D520928380858923E9F30E94420928
:10132000E091D620F091D7208091D42081830E9433
:101330004209E091D620F091D7208091D520818379
:101340000E9457090895E091D620F091D72080910E
:10135000D42081830E945709E091D620F091D720B4
:101360009091D520928380858923E9F30E944209D8
:10137000E091D620F091D7208091D42082830E94E2
:1013800057090895CF93DF93D82FC0E028C0DD23FD
:1013900044F4E091D620F091D7208091D42082832C
:1013A00007C0E091D620F091D7208091D42081838E
:1013B000DD0F0E944209E091D620F091D720909154
:1013C000D520928380858923E9F30E945709E09113
:1013D000D620F091D7208091D5208183CF5FC8306F
:1013E000B4F2E091D620F091D7208091D42082836E
:1013F0000E945709E091D620F091D7208091D52006
:101400008283C0858091D420C8230E945709E0912F
:10141000D620F091D7208091D52081830E94570952
:101420008C2FDF91CF9108951F93CF93DF93182FC7
:10143000E091D620F091D7208091D4208283D0E013
:10144000C0E01CC00E945709E091D620F091D7203F
:101450009091D520928380858923E9F3CC0F9085E4
:101460008091D4208923C82B0E945709E091D6206F
:10147000F091D7208091D5208183DF5FD83014F39D
:10148000111107C0E091D620F091D7208091D4208F
:1014900081830E945709E091D620F091D720809156
:1014A000D52082830E945709E091D620F091D72061
:1014B0008091D5208183E091D620F091D720809132
:1014C000D42082838C2FDF91CF911F910895E0EA81
:1014D000F6E088E084838083E0EAFBE08CE08683AA
:1014E00080E48783138283E0858388E18483089581
:1014F00006C02F5F3F4F2093862030938720809136
:10150000A10B20918620309187208095881F882705
:10151000881F91E0253031050CF090E0892349F7D0
:1015200010928620109287208091A00B08958F92B0
:101530009F92AF92BF92EF92FF920F931F93CF9320
:10154000DF937C0100E010E0C0E0D0E04BC0B701C9
:1015500061507109072E000C880B990B0E94910CA9
:101560009B01AC0160E070E080E291E40E94E20D3A
:101570004B015C01B801012E000C880B990B0E94F5
:10158000910C9B01AC0160E070E080E291E40E946C
:10159000E20D9B01AC01C501B4010E94E70B4B01B8
:1015A0005C010E94780A682F70E060537109072E71
:1015B000000C880B990B0E94910CA50194010E94CC
:1015C000750D4B015C01BE01DD0F880B990B0E946C
:1015D000910CA50194010E94040B0E94590CEB018F
:1015E0000F5F1F4F0E151F050CF4B1CFCE010196F2
:1015F000DF91CF911F910F91FF90EF90BF90AF902F
:101600009F908F9008955058BB27AA270E941B0BCC
:101610000C942E0D0E94200D38F00E94270D20F012
:1016200039F49F3F19F426F40C94F60C0EF4E0956F
:10163000E7FB0C94F00CE92F0E943F0D58F3BA170A
:10164000620773078407950720F079F4A6F50C94D8
:10165000610D0EF4E0950B2EBA2FA02D0B01B901F0
:1016600090010C01CA01A0011124FF27591B99F018
:10167000593F50F4503E68F11A16F040A22F232F24
:10168000342F4427585FF3CF469537952795A79574
:10169000F0405395C9F77EF41F16BA0B620B730B1B
:1016A000840BBAF09150A1F0FF0FBB1F661F771F8C
:1016B000881FC2F70EC0BA0F621F731F841F48F441
:1016C000879577956795B795F7959E3F08F0B0CFCA
:1016D0009395880F08F09927EE0F979587950895B1
:1016E0000E94200D60F080E891E009F49EEF0E94D6
:1016F000270D28F040E851E071F45EEF0CC00C9427
:10170000F60C0C94610DE92FE0780E943F0D40F338
:10171000092E052AB1F3261737074807590738F06D
:101720000E2E07F8E02569F0E025E0640AC0EF63BB
:1017300007F8009407FADB01B9019D01DC01CA0139
:10174000AD01EF930E94FE0B0E942E0D0E94B30B81
:101750005F91552339F02BED3FE049E450FD49EC12
:101760000C94040B0895DF93DD27B92FBF7740E871
:101770005FE31616170648075B0718F4D92F0E9477
:101780006D0D9F938F937F936F930E94780EECEF74
:10179000F1E00E94F90C0E942E0D2F913F914F9184
:1017A0005F910E94880DDD2351F09058A2EA2AED46
:1017B0003FE049EC5FE3D0785D270E941B0BDF918F
:1017C0000C942E0D0E94CC0C08F481E008950E9428
:1017D000FB0B0C942E0D0E94270D58F00E94200D3B
:1017E00040F029F45F3F29F00C94F00C51110C9457
:1017F000620D0C94F60C0E943F0D68F39923B1F32F
:10180000552391F3951B550BBB27AA276217730726
:10181000840738F09F5F5F4F220F331F441FAA1FBA
:10182000A9F335D00E2E3AF0E0E832D09150504076
:10183000E695001CCAF72BD0FE2F29D0660F771F24
:10184000881FBB1F261737074807AB07B0E809F00A
:10185000BB0B802DBF01FF2793585F4F3AF09E3F8F
:10186000510578F00C94F00C0C94620D5F3FE4F39A
:10187000983ED4F3869577956795B795F7959F5FD2
:10188000C9F7880F911D9695879597F90895E1E01E
:10189000660F771F881FBB1F621773078407BA077D
:1018A00020F0621B730B840BBA0BEE1F88F7E095D8
:1018B00008950E94600C6894B1110C94620D089513
:1018C0000E94470D88F09F5798F0B92F9927B7517C
:1018D000B0F0E1F0660F771F881F991F1AF0BA95D4
:1018E000C9F714C0B13091F00E94610DB1E00895C4
:1018F0000C94610D672F782F8827B85F39F0B93FB6
:10190000CCF3869577956795B395D9F73EF4909586
:101910008095709561957F4F8F4F9F4F0895E89404
:1019200009C097FB3EF490958095709561957F4F27
:101930008F4F9F4F9923A9F0F92F96E9BB279395D5
:10194000F695879577956795B795F111F8CFFAF4E5
:10195000BB0F11F460FF1BC06F5F7F4F8F4F9F4F16
:1019600016C0882311F096E911C0772321F09EE874
:10197000872F762F05C0662371F096E8862F70E0DA
:1019800060E02AF09A95660F771F881FDAF7880FB4
:101990009695879597F90895990F0008550FAA0B0A
:1019A000E0E8FEEF16161706E807F907C0F0121672
:1019B0001306E407F50798F0621B730B840B950B75
:1019C00039F40A2661F0232B242B252B21F40895CA
:1019D0000A2609F4A140A6958FEF811D811D089567
:1019E00097F99F6780E870E060E008959FEF80ECD2
:1019F0000895DF93CF931F930F93FF92EF92DF929F
:101A00007B018C01689406C0DA2EEF010E94880DDC
:101A1000FE01E894A5912591359145915591A6F344
:101A2000EF010E941B0BFE019701A801DA9469F7F0
:101A3000DF90EF90FF900F911F91CF91DF9108956C
:101A400000240A941616170618060906089500249D
:101A50000A9412161306140605060895092E039417
:101A6000000C11F4882352F0BB0F40F4BF2B11F48B
:101A700060FF04C06F5F7F4F8F4F9F4F089557FDEA
:101A80009058440F551F59F05F3F71F04795880FEC
:101A900097FB991F61F09F3F79F087950895121683
:101AA00013061406551FF2CF4695F1DF08C016162F
:101AB00017061806991FF1CF8695710561050894E0
:101AC0000895E894BB2766277727CB0197F90895F7
:101AD0000E94CC0C08F48FEF08959B01AC0160E0EC
:101AE00070E080E89FE30C94E70B0E94880D0C9453
:101AF0002E0D0E94200D38F00E94270D20F0952316
:101B000011F00C94F00C0C94F60C11240C94620D52
:101B10000E943F0D70F3959FC1F3950F50E0551F44
:101B2000629FF001729FBB27F00DB11D639FAA2732
:101B3000F00DB11DAA1F649F6627B00DA11D661F81
:101B4000829F2227B00DA11D621F739FB00DA11DA2
:101B5000621F839FA00D611D221F749F3327A00D5C
:101B6000611D231F849F600D211D822F762F6A2FF8
:101B700011249F5750409AF0F1F088234AF0EE0F5D
:101B8000FF1FBB1F661F771F881F91505040A9F78A
:101B90009E3F510580F00C94F00C0C94620D5F3F59
:101BA000E4F3983ED4F3869577956795B795F795C6
:101BB000E7959F5FC1F7FE2B880F911D969587953E
:101BC00097F90895FA01EE0FFF1F309621053105B0
:101BD000A1F16115710561F48038BFE39B0749F1FC
:101BE00068949038810561F08038BFEF9B0741F021
:101BF00099234AF5FF3FE1053105210519F1E894E4
:101C00000894E795D901AA2329F4AB2FBE2FF85FDA
:101C1000D0F310C0FF5F70F4A695E0F7F73950F0ED
:101C200019F0FF3A38F49F779F930DD00F9007FC7F
:101C30009058089546F00C94F60C60E070E080E84F
:101C40009FE308954FE79F775F934F933F932F93C1
:101C50000E940D0F2F913F914F915F910E94750D42
:101C60000C94840E19F416F40C94F60C0C94B60E25
:101C70000E94470DB8F39923C9F3B6F39F57550B4C
:101C800087FF0E94C40E0024A0E640EA900180581D
:101C90005695979528F4805C660F771F881F20F073
:101CA00026173707480730F4621B730B840B202973
:101CB00031294A2BA69517940794202531254A27C8
:101CC00058F7660F771F881F20F026173707480739
:101CD00030F4620B730B840B200D311D411DA09558
:101CE00081F7B901842F9158880F969587950895AB
:101CF0009B01AC010C94750D29F416F00C94F00CBA
:101D00000C94610D0C94F60C0E94470DA8F39638C4
:101D1000A0F707F80F92E8942BE33AEA48EB5FE765
:101D20000E948B0D0F920F920F924DB75EB70F92DC
:101D30000E94550FE9E2F2E00E94F90C4F915F9189
:101D4000EF91FF91E595EE1FFF1F49F0FE57E06808
:101D50004427EE0F441FFA95E1F74195550B0E9479
:101D6000CF0E0F9007FE0C946D0D08959F3F31F03C
:101D7000915020F4879577956795B795880F911DB9
:101D80009695879597F9089591505040660F771F63
:101D9000881FD2F708950C94F00C0C94B60E0E9494
:101DA000470DD8F39923C9F3940F511DA3F3915014
:101DB000504094F059F0882332F0660F771F881F47
:101DC00091505040C1F79E3F51052CF7880F911D4F
:101DD0009695879597F908955F3FACF0983E9CF0F3
:101DE000BB27869577956795B79508F4B16093956D
:101DF000C1F7BB0F58F711F460FFE8CF6F5F7F4F5B
:101E00008F4F9F4FE3CF0C94620D16F00C94B60EDB
:101E10000C94F60C68940C94F00C0E94470DA8F3F7
:101E20009923C1F3AEF3DF93CF931F930F93FF92E8
:101E3000C92FDD2788232AF02197660F771F881F77
:101E4000DAF720E030E040E85FEB9FE3883920F0EC
:101E5000803E38F021968F770E94040BE1E5F2E096
:101E600004C00E94040BEEE7F2E00E94F90C8B0123
:101E7000BE01EC01FB2E6F5771097595771F880B1A
:101E8000990B0E94910C28E132E741E35FE30E9445
:101E9000880DAF2D9801AE01FF900F911F91CF914A
:101EA000DF910E941B0B0C942E0DFA01DC01AA0F8E
:101EB000BB1F9B01AC01BF5728F4222733274427BF
:101EC000507820C0B75190F4AB2F00244695379539
:101ED0002795011CA395D2F3002071F0220F331F28
:101EE000441FB395DAF30ED00C94030B61307105E7
:101EF000A0E88A07B94630F49B01AC016627772732
:101F000088279078309621F0208331834283538351
:061F10000895F894FFCFD4
:101F160017B7D138CDCCAC41CDCC2C40AB67873B85
:101F26000090E44500C00F459825653A00007044CE
:101F36000000F0429825E53A48E17A3FF354873BA2
:0A1F4600000080460000034372060D
:00000001FF
